:100000000C942A000C943F000C943F000C943F0089
:100010000C943F000C943F000C943F000C943F0064
:100020000C943F000C943F000C943F000C943F0054
:100030000C943F000C943F000C943F000C943F0044
:100040000C943F000C943F000C943F000C943F0034
:100050000C943F0011241FBECFE5D4E0DEBFCDBF1E
:1000600010E0A0E6B0E0EEEFF0E002C005900D92E7
:10007000A037B107D9F70E9441000C947D000C9481
:100080000000CF93DF93CDB7DEB760970FB6F8943B
:10009000DEBF0FBECDBF8FEF87BB8ABB80E1E0E63E
:1000A000F0E0DE01119601900D928A95E1F79E0134
:1000B0002F5E3F4FFE0131968191809588BB4FEFB7
:1000C00054E36CE0415050406040E1F700C0000054
:1000D0002E173F0789F780E090E08BBB4FEF50E78A
:1000E00062E0415050406040E1F700C000000196DE
:0E00F000811541E0940789F7DDCFF894FFCF2A
:1000FE003F065B4F666D7D077F675F7C585E79714B
:00000001FF
